:100000000C9462000C948A000C948A000C948A0070
:100010000C948A000C948A000C948A000C948A0038
:100020000C948A000C948A000C948A000C948A0028
:100030000C948A000C948A000C948A000C948A0018
:100040000C9401050C948A000C9471050C944B05DA
:100050000C948A000C948A000C948A000C948A00F8
:100060000C948A000C948A000000000024002700F1
:100070002A0000000000250028002B0000000008D6
:10008000000201000003040700000000000000005F
:1000900000000000230026002900040404040404D6
:1000A0000404020202020202030303030303010227
:1000B00004081020408001020408102001020408F6
:1000C0001020A30511241FBECFEFD8E0DEBFCDBFA7
:1000D00011E0A0E0B1E0EAE2F4E102C005900D9287
:1000E000A63CB107D9F722E0A6ECB1E001C01D9211
:1000F000AF37B207E1F710E0C2E6D0E004C02197C5
:10010000FE010E940D0AC136D107C9F70E94F00511
:100110000C94130A0C940000CF92DF92EF92FF929E
:10012000CF93DF93B0917302A0E08111AB2F809148
:10013000740290E0880F991FAC0140575F4FC09048
:100140007902D0907A02E0907B02F0907C0230E05D
:1001500020E0FA01C591D491E881B90190E080E0F6
:10016000EB23EA130AC02F5F3F4F6C157D058E0508
:100170009F0578F36FEF7FEFCB01DF91CF91FF9079
:10018000EF90DF90CF90089590E0FC01E458FF4F8E
:100190002491FC01E255FF4F3491FC01E656FF4FDC
:1001A000E491EE23C9F0222339F0233001F1A8F4C1
:1001B000213019F1223029F1F0E0EE0FFF1FEE5847
:1001C000FF4FA591B4918FB7F894EC91611126C0BF
:1001D00030953E233C938FBF08952730A9F02830F7
:1001E000C9F0243049F7809180008F7D03C0809151
:1001F00080008F7780938000DFCF84B58F7784BDB8
:10020000DBCF84B58F7DFBCF8091B0008F7780935B
:10021000B000D2CF8091B0008F7DF9CF3E2BDACFE6
:10022000CF93DF9390E0FC01E255FF4F2491865677
:100230009F4FFC0184918823D1F090E0880F991F93
:10024000FC01E859FF4FA591B491FC01EE58FF4F16
:10025000C591D491623071F49FB7F8943C91822F8C
:10026000809583238C93E8812E2B28839FBFDF9179
:10027000CF9108958FB7F894EC912E2B2C938FBFCC
:10028000F6CF8E50806480937C0080917A008064E9
:1002900080937A0080917A0086FDFCCF809178006F
:1002A0009091790008953FB7F8948091C70190919B
:1002B000C801A091C901B091CA0126B5A89B05C08B
:1002C0002F3F19F00196A11DB11D3FBFBA2FA92FD5
:1002D000982F8827BC01CD01620F711D811D911DD2
:1002E00042E0660F771F881F991F4A95D1F708953E
:1002F0008F929F92AF92BF92CF92DF92EF92FF9236
:100300004B015C010E9453016B017C010E9453016F
:100310006C197D098E099F09683E7340810591051E
:10032000A8F321E0821A9108A108B10888EEC80E4E
:1003300083E0D81EE11CF11C81149104A104B104D6
:1003400029F7FF90EF90DF90CF90BF90AF909F90F4
:100350008F900895CF92DF92EF92FF920F931F93A9
:10036000CF93DF93CDB7DEB7C054D1400FB6F8942A
:10037000DEBF0FBECDBF2FB7F8948091CB01909117
:10038000CC01A091CD01B091CE012FBF409175025B
:100390005091760260917702709178028C019D01F4
:1003A000041B150B260B370BB901A801403D574024
:1003B0006105710590F480917D02C05CDE4F0FB63F
:1003C000F894DEBF0FBECDBFDF91CF911F910F918B
:1003D000FF90EF90DF90CF900895809375029093F7
:1003E0007602A0937702B093780210927002109276
:1003F0006F0210926E0210926D0210926C0262E017
:10040000809171020E94100161E070E080E090E054
:100410000E94780161E0809171020E94100160E009
:10042000809171020E94C4008091720285518230D5
:1004300020F58BE291E10197F1F762E08091710282
:100440000E94100180917E0290E08230910538F088
:10045000880F991F880F991F05970197F1F7F89456
:1004600080E00E948C006F3F7F4F8F4F9F4F61F461
:1004700010927D02789480E0A0CF64E170E080E08B
:1004800090E00E947801D9CF81E00E948C006F3FFC
:100490007F4F8F4F9F4F61F38E010F5F1F4F6E0194
:1004A0008FEBC81A8EEFD80A780180E00E948C008A
:1004B000F701608371838283938381E00E948C00C3
:1004C000F7016483758386839783F8E0EF0EF11C50
:1004D000EC14FD0451F7789430E020E0F801C0807E
:1004E000D180E280F3804481558166817781FFEF7E
:1004F000CF16DF06EF06FF0631F04F3F8FEF5807AC
:100500006807780719F410927D02B5CFF90183E0EE
:10051000F595E7958A95E1F7E459FD4F8081880FBD
:10052000C416D506E606F70610F180832F5F3F4F0D
:10053000085F1F4F2832310589F6409170022091E3
:100540006C0280916D02280F3327331F80916E0259
:10055000280F311D80916F02820F932F911D9927D3
:100560004817190681F681E080937D0226CF8160CD
:10057000DCCFAF92BF92CF92DF92EF92FF920F93B8
:100580001F93CF93DF936C017B018B01040F151F29
:10059000EB015E01AE18BF08C017D10759F0699191
:1005A000D601ED91FC910190F081E02DC6010995F5
:1005B000892B79F7C501DF91CF911F910F91FF90A2
:1005C000EF90DF90CF90BF90AF900895FC01538DD6
:1005D000448D252F30E0842F90E0821B930B54171D
:1005E00010F0CF96089501970895FC01918D828DAA
:1005F000981761F0A28DAE0FBF2FB11D5D968C9143
:10060000928D9F5F9F73928F90E008958FEF9FEF81
:100610000895FC01918D828D981731F0828DE80F3D
:10062000F11D858D90E008958FEF9FEF0895FC01F7
:10063000918D228D892F90E0805C9F4F821B9109C4
:100640008F73992708958FEC91E00E94170321E0A2
:10065000892B09F420E0822F089580E090E0892B17
:1006600029F00E94230381110C9400000895FC01DD
:10067000A48DA80FB92FB11DA35ABF4F2C91848D03
:1006800090E001968F739927848FA689B7892C9360
:10069000A089B1898C91837080648C93938D848DB3
:1006A000981306C00288F389E02D80818F7D8083B6
:1006B0000895EF92FF920F931F93CF93DF93EC0176
:1006C00081E0888F9B8D8C8D98131AC0E889F989F9
:1006D000808185FF15C09FB7F894EE89FF896083FC
:1006E000E889F98980818370806480839FBF81E07D
:1006F00090E0DF91CF911F910F91FF90EF900895BF
:10070000F62E0B8D10E00F5F1F4F0F731127E02E99
:100710008C8D8E110CC00FB607FCFACFE889F989D1
:10072000808185FFF5CFCE010E943703F1CFEB8D9D
:10073000EC0FFD2FF11DE35AFF4FF0829FB7F894A5
:100740000B8FEA89FB8980818062CFCFCF93DF93C3
:10075000EC01888D8823B9F0AA89BB89E889F989D9
:100760008C9185FD03C0808186FD0DC00FB607FC0E
:10077000F7CF8C9185FFF2CF808185FFEDCFCE0141
:100780000E943703E9CFDF91CF910895FC010190DA
:100790000020E9F73197AF01481B590BBC018FECE2
:1007A00091E00C94B9028F929F92AF92BF920F93F7
:1007B0001F93CF93DF93CDB7DEB7A1970FB6F89411
:1007C000DEBF0FBECDBF19A2423008F44AE08E0151
:1007D0000F5D1F4F842E912CB12CA12CA5019401EB
:1007E0000E94EB09E62FB901CA01EA30F4F4E05D9A
:1007F000D801EE938D01232B242B252B79F790E044
:1008000080E0109719F0CD010E94C603A1960FB6A3
:10081000F894DEBF0FBECDBFDF91CF911F910F9136
:10082000BF90AF909F908F900895E95CE1CFCF93F8
:10083000DF930E94C603EC0182E191E00E94C603AF
:100840008C0F9D1FDF91CF9108954F925F926F9211
:100850007F928F929F92AF92BF92CF92DF92EF9250
:10086000FF920F931F93CF936B017C01742EAC0109
:100870009B010E94E609882399F085E191E0CF91E0
:100880001F910F91FF90EF90DF90CF90BF90AF90AE
:100890009F908F907F906F905F904F900C94C603C5
:1008A00046015701E894B7F82FEF3FEF4FE75FE7B6
:1008B000C501B4010E94E60981110DC02FEF3FEF81
:1008C0004FE75FE7C501B4010E941C0818161CF42D
:1008D00089E191E0D4CF2FEF3FEF4FE75FE4C7010D
:1008E000B6010E94740918161CF48DE191E0C7CF7F
:1008F0002FEF3FEF4FE75FECC701B6010E941C08E6
:1009000087FDF3CF20E030E0A901C701B6010E94C6
:100910001C0810E000E087FF0AC06DE28FEC91E058
:100920000E9459038C01F7FAF094F7F8F094C0E0B4
:1009300060E070E080E09FE37C1641F020E030E072
:1009400040E251E40E942108CF5FF6CFA701960153
:100950000E94B0072B013C010E9493084B015C01EF
:100960004AE00E94D3037C01E00EF11ECC23C1F1CA
:10097000C501B4010E94C2089B01AC01C301B201D0
:100980000E94AF074B015C016EE28FEC91E00E9488
:100990005903E80EF91EC15018F120E030E040E2A2
:1009A00051E4C501B4010E9479092B013C010E9468
:1009B00093084B01B12CA12C4AE0C501B4010E945F
:1009C000D303E80EF91EC501B4010E94C2089B01C1
:1009D000AC01C301B2010E94AF074B015C01DBCF48
:1009E000C701CF911F910F91FF90EF90DF90CF90B3
:1009F000BF90AF909F908F907F906F905F904F903F
:100A000008951F920F920FB60F9211242F933F93C8
:100A10008F939F93AF93BF938091CB019091CC0123
:100A2000A091CD01B091CE013091C60123E0230FFA
:100A30002D3758F50196A11DB11D2093C601809355
:100A4000CB019093CC01A093CD01B093CE018091C6
:100A5000C7019091C801A091C901B091CA01019646
:100A6000A11DB11D8093C7019093C801A093C90136
:100A7000B093CA01BF91AF919F918F913F912F91F8
:100A80000F900FBE0F901F90189526E8230F029627
:100A9000A11DB11DD2CF1F920F920FB60F9211243C
:100AA0002F933F934F935F936F937F938F939F9376
:100AB000AF93BF93EF93FF938FEC91E00E943703C6
:100AC000FF91EF91BF91AF919F918F917F916F9126
:100AD0005F914F913F912F910F900FBE0F901F90FC
:100AE00018951F920F920FB60F9211242F938F9388
:100AF0009F93EF93FF93E091DF01F091E0018081FC
:100B0000E091E501F091E60182FD1BC090818091AA
:100B1000E8018F5F8F732091E901821741F0E09126
:100B2000E801F0E0E153FE4F958F8093E801FF91DB
:100B3000EF919F918F912F910F900FBE0F901F906B
:100B400018958081F4CFEFECF1E01382128288EEE9
:100B500093E0A0E0B0E084839583A683B78384E02C
:100B600091E09183808385EC90E09587848784EC85
:100B700090E09787868780EC90E0918B808B81EC6A
:100B800090E0938B828B82EC90E0958B848B86EC4B
:100B900090E0978B868B118E128E138E148EACE69E
:100BA000B2E080E115968C9315978BE016968C93A6
:100BB0001697EEEBF0E0E4911796EC931797EAEABC
:100BC000F0E0E4911896EC93189740E85EE360E05B
:100BD00070E01D964D935D936D937C9350970895AF
:100BE000789484B5826084BD84B5816084BD85B508
:100BF000826085BD85B5816085BD80916E00816014
:100C000080936E00109281008091810082608093B9
:100C100081008091810081608093810080918000BB
:100C20008160809380008091B10084608093B100E6
:100C30008091B00081608093B00080917A008460E0
:100C400080937A0080917A00826080937A0080910C
:100C50007A00816080937A0080917A008068809326
:100C60007A001092C10061E087E00E94100160E00C
:100C700087E00E94C400E091DF01F091E00182E092
:100C80008083E091DB01F091DC011082E091DD01D5
:100C9000F091DE018FEC80831092E701E091E30197
:100CA000F091E40186E08083E091E101F091E201BE
:100CB000808180618083E091E101F091E201808197
:100CC00088608083E091E101F091E2018081806899
:100CD0008083E091E101F091E20180818F7D80834A
:100CE00062E0809171020E9410012FB7F894809108
:100CF000CB019091CC01A091CD01B091CE012FBF3D
:100D0000805D9740A109B1098093750290937602A6
:100D1000A0937702B093780287E380937E0281E20A
:100D200091E00E94170481E491E00E941704C0E062
:100D3000D0E00E94AA01882341F0809172028C3099
:100D400009F4E2C048F48B3001F1C12CD12C80ECC5
:100D5000E82E8FE7F82E43C085518230B0F710910E
:100D60006E02612F70E0762F662766277F7780916D
:100D70006F02682B90E080E00E94C2082DEC3CECF2
:100D80004CEC5DE30E947909DBC060916E0270E07B
:100D900090E080E00E94C2086B017C0110916F021C
:100DA00017FF0AC0AC019B0160E070E080E89FEB98
:100DB0000E94AF076B017C011F70612F70E090E013
:100DC00080E00E94C4082DEC3CEC4CEC5DE30E94FA
:100DD0007909A70196010E94B0076B017C018EE0A2
:100DE0000E944101BC01990F880B990B0E94C40815
:100DF0002AE038E240EA5BE30E94790920E030E033
:100E000040E650E40E9479092B013C0181E10E94F7
:100E100041018C0120E030E040ED50E4C301B2011B
:100E20000E94740918167CF0093582E018075CF4FA
:100E300020E030E040EF51E4C701B6010E947409A0
:100E400018160CF086C061E087E00E94C400BB2445
:100E5000B39482E191E00E94C60382E691E00E9491
:100E6000C60342E0C701B6010E94250480E791E075
:100E70000E94170485E791E00E94C60342E0C30187
:100E8000B2010E94250482E191E00E94C60380E83D
:100E900091E00E94C6036801110FEE08FF084AE0C6
:100EA000C701B601F7FE0DC06DE28FEC91E00E9424
:100EB000590366277727CB016C197D098E099F0995
:100EC0004AE00E94D30382E191E00E94C60382E9D6
:100ED00091E0B11002C08EEA91E00E94170481E413
:100EE00091E00E94170460ED77E080E090E00E94BE
:100EF0007801209709F41DCF0E942303882309F469
:100F000018CF0E94000015CF10916E02612F70E083
:100F100090E080E00E94C2086B017C0160916F024A
:100F20006F7070E090E080E00E94C4082DEC3CEC13
:100F30004CEC5DE30E947909A70196010E94B0077D
:100F40006B017C0117FF4BCFF7FAF094F7F8F094A0
:100F500046CF60E087E00E94C400B12C7ACF5058A1
:100F6000BB27AA270E94C7070C943A090E942C09A4
:100F700038F00E94330920F039F49F3F19F426F429
:100F80000C9429090EF4E095E7FB0C942309E92F52
:100F90000E944B0958F3BA17620773078407950735
:100FA00020F079F4A6F50C946D090EF4E0950B2E63
:100FB000BA2FA02D0B01B90190010C01CA01A001AB
:100FC0001124FF27591B99F0593F50F4503E68F106
:100FD0001A16F040A22F232F342F4427585FF3CF47
:100FE000469537952795A795F0405395C9F77EF418
:100FF0001F16BA0B620B730B840BBAF09150A1F061
:10100000FF0FBB1F661F771F881FC2F70EC0BA0FE6
:10101000621F731F841F48F4879577956795B7956E
:10102000F7959E3F08F0B0CF9395880F08F0992769
:10103000EE0F9795879508950E94FF0808F481E0C8
:1010400008950E9435080C943A090E94330958F01B
:101050000E942C0940F029F45F3F29F00C942309E9
:1010600051110C946E090C9429090E944B0968F3E4
:101070009923B1F3552391F3951B550BBB27AA2751
:1010800062177307840738F09F5F5F4F220F331F8B
:10109000441FAA1FA9F335D00E2E3AF0E0E832D053
:1010A00091505040E695001CCAF72BD0FE2F29D056
:1010B000660F771F881FBB1F261737074807AB0728
:1010C000B0E809F0BB0B802DBF01FF2793585F4F9D
:1010D0003AF09E3F510578F00C9423090C946E0968
:1010E0005F3FE4F3983ED4F3869577956795B7957F
:1010F000F7959F5FC9F7880F911D9695879597F98A
:101100000895E1E0660F771F881FBB1F6217730702
:101110008407BA0720F0621B730B840BBA0BEE1F17
:1011200088F7E09508950E94530988F09F5798F03A
:10113000B92F9927B751B0F0E1F0660F771F881FDC
:10114000991F1AF0BA95C9F714C0B13091F00E94F6
:101150006D09B1E008950C946D09672F782F8827E9
:10116000B85F39F0B93FCCF3869577956795B3951D
:10117000D9F73EF490958095709561957F4F8F4F8C
:101180009F4F0895E89409C097FB3EF49095809591
:10119000709561957F4F8F4F9F4F9923A9F0F92F3D
:1011A00096E9BB279395F695879577956795B795BB
:1011B000F111F8CFFAF4BB0F11F460FF1BC06F5FA1
:1011C0007F4F8F4F9F4F16C0882311F096E911C0B3
:1011D000772321F09EE8872F762F05C0662371F0D4
:1011E00096E8862F70E060E02AF09A95660F771FE8
:1011F000881FDAF7880F9695879597F90895990FC4
:101200000008550FAA0BE0E8FEEF16161706E807D0
:10121000F907C0F012161306E407F50798F0621BF1
:10122000730B840B950B39F40A2661F0232B242BC6
:10123000252B21F408950A2609F4A140A6958FEFE5
:10124000811D811D089597F99F6780E870E060E037
:1012500008959FEF80EC089500240A94161617064F
:1012600018060906089500240A9412161306140697
:1012700005060895092E0394000C11F4882352F0FA
:10128000BB0F40F4BF2B11F460FF04C06F5F7F4FB2
:101290008F4F9F4F089557FD9058440F551F59F099
:1012A0005F3F71F04795880F97FB991F61F09F3F53
:1012B00079F087950895121613061406551FF2CF7C
:1012C0004695F1DF08C0161617061806991FF1CFCC
:1012D00086957105610508940895E894BB276627F3
:1012E0007727CB0197F908950E94FF0808F48FEF44
:1012F00008950E948C090C943A090E942C0938F038
:101300000E94330920F0952311F00C9423090C94CA
:10131000290911240C946E090E944B0970F3959FC2
:10132000C1F3950F50E0551F629FF001729FBB27DC
:10133000F00DB11D639FAA27F00DB11DAA1F649F78
:101340006627B00DA11D661F829F2227B00DA11D2B
:10135000621F739FB00DA11D621F839FA00D611DB1
:10136000221F749F3327A00D611D231F849F600DD2
:10137000211D822F762F6A2F11249F5750409AF0FB
:10138000F1F088234AF0EE0FFF1FBB1F661F771F87
:10139000881F91505040A9F79E3F510580F00C9452
:1013A00023090C946E095F3FE4F3983ED4F38695CD
:1013B00077956795B795F795E7959F5FC1F7FE2BF2
:1013C000880F911D9695879597F908950E94FF08BB
:1013D000880B990B0895A1E21A2EAA1BBB1BFD01D5
:1013E0000DC0AA1FBB1FEE1FFF1FA217B307E40704
:1013F000F50720F0A21BB30BE40BF50B661F771F5C
:10140000881F991F1A9469F760957095809590953B
:101410009B01AC01BD01CF010895EE0FFF1F0590A8
:0A142000F491E02D0994F894FFCF39
:10142A00000000005903B902E602A6031703F502F9
:10143A0009030D0A006E616E00696E66006F7666BA
:10144A00005761746572205175616C697479204D19
:10145A006F6E69746F72696E672053797374656D04
:10146A00002D2D2D2D2D2D2D2D2D2D2D2D2D2D2DCF
:10147A002D2D2D2D2D2D2D2D2D2D2D2D2D2D2D2D92
:10148A002D0054656D70657261747572653A20003D
:10149A0020C2B0430070482056616C75653A20003E
:1014AA0054757262696469747920284C4452293AE5
:1014BA0020005761746572205374617475733A2001
:1014CA00554E5341464520E29AA0EFB88F00576126
:1014DA00746572205374617475733A20534146459A
:0614EA0020E29C850000D9
:00000001FF
